{
  "contractName": "Calculator",
  "abi": [
    {
      "constant": false,
      "inputs": [
        {
          "internalType": "int256",
          "name": "a",
          "type": "int256"
        },
        {
          "internalType": "int256",
          "name": "b",
          "type": "int256"
        }
      ],
      "name": "Add",
      "outputs": [
        {
          "internalType": "int256",
          "name": "",
          "type": "int256"
        }
      ],
      "payable": false,
      "stateMutability": "nonpayable",
      "type": "function"
    },
    {
      "constant": false,
      "inputs": [
        {
          "internalType": "int256",
          "name": "a",
          "type": "int256"
        },
        {
          "internalType": "int256",
          "name": "b",
          "type": "int256"
        }
      ],
      "name": "Substract",
      "outputs": [
        {
          "internalType": "int256",
          "name": "",
          "type": "int256"
        }
      ],
      "payable": false,
      "stateMutability": "nonpayable",
      "type": "function"
    },
    {
      "constant": true,
      "inputs": [],
      "name": "LastOperation",
      "outputs": [
        {
          "internalType": "int256",
          "name": "",
          "type": "int256"
        }
      ],
      "payable": false,
      "stateMutability": "view",
      "type": "function"
    }
  ],
  "bytecode": "0x60806040526000805534801561001457600080fd5b50610166806100246000396000f3fe608060405234801561001057600080fd5b50600436106100415760003560e01c8063830fb67c146100465780639fcf225614610092578063d3507d71146100de575b600080fd5b61007c6004803603604081101561005c57600080fd5b8101908080359060200190929190803590602001909291905050506100fc565b6040518082815260200191505060405180910390f35b6100c8600480360360408110156100a857600080fd5b810190808035906020019092919080359060200190929190505050610112565b6040518082815260200191505060405180910390f35b6100e6610128565b6040518082815260200191505060405180910390f35b6000818301600081905550600054905092915050565b6000818303600081905550600054905092915050565b6000805490509056fea265627a7a723158202800a4d48f71bd9d45e2a1de48d04d3fd8d52a868dff96beb8c985c62db0db9264736f6c63430005100032",
  "source": "pragma solidity ^0.5.16;\n\ncontract Calculator {\n    int private lastValue = 0;\n    \n    function Add(int a, int b) public returns (int) {\n        lastValue = a + b;\n        return lastValue;\n    }\n    \n    function Substract (int a, int b) public returns (int) {\n        lastValue = a - b;\n        return lastValue;\n    }\n    \n    function LastOperation() public view returns (int) {\n        return lastValue;\n    }\n}\n\n\n",
  "sourcePath": "/home/desire/Documents/programming/Solidity/Calculator/contracts/_Calculator.sol",
  "compiler": {
    "name": "solc",
    "version": "0.5.16+commit.9c3226ce.Emscripten.clang"
  },
  "schemaVersion": "3.2.5",
  "updatedAt": "2020-10-14T20:41:28.879Z",
  "devdoc": {
    "methods": {}
  },
  "userdoc": {
    "methods": {}
  }
}